:100000000C94D0000C94F8000C94F8000C94F800B8
:100010000C94F8000C94F8000C94F8000C94F80080
:100020000C94F8000C94F8000C94F8000C94F80070
:100030000C94F8000C94F8000C94F8000C94F80060
:100040000C94FA000C94F8000C9477020C94BA0209
:100050000C94F8000C94F8000C94F8000C94F80040
:100060000C94F8000C94F8004E414E494E495459F6
:10007000494E46CDCCCC3D0AD7233C17B7D1387773
:10008000CC2B329595E6241FB14F0A000020410089
:1000900000C84200401C4620BCBE4CCA1B0E5AAED3
:1000A000C59D7400407A10F35A00A0724E180900E2
:1000B00010A5D4E80000E87648170000E40B5402CD
:1000C0000000CA9A3B000000E1F505000080969808
:1000D00000000040420F000000A086010000001058
:1000E0002700000000E8030000000064000000009A
:1000F000000A00000000000100000000002C76D87B
:1001000088DC674F0823DFC1DFAE59E1B1B796E560
:10011000E3E453C63AE651997696E8E6C28426EBC4
:10012000898C9B62ED407C6FFCEFBC9C9F40F2BAD7
:10013000A56FA5F490055A2AF75C936B6CF9676D6F
:10014000C11BFCE0E40D47FEF520E6B500D0ED90C4
:100150002E0300943577050080841E080000204E91
:100160000A000000C80C333333330F986E1283112A
:1001700041EF8D2114893BE65516CFFEE6DB18D101
:10018000844B381BF77C1D901DA4BBE424203284D3
:10019000725E228100C9F124ECA1E53D2700F71031
:1001A00011241FBECFEFD8E0DEBFCDBF11E0A0E02D
:1001B000B1E0E6EDF6E302C005900D92AA33B10777
:1001C000D9F711E0AAE3B1E001C01D92A43FB10745
:1001D000E1F711E0C0EAD1E004C02297FE010E94DD
:1001E000A613CE39D107C9F70E949A100C94691B47
:1001F0000C9400001F920F920FB60F9211242F93B0
:100200003F938F939F93AF93BF9380913A019091C7
:100210003B01A0913C01B0913D013091420123E0AE
:10022000230F2D3720F40196A11DB11D05C026E82E
:10023000230F0296A11DB11D2093420180933A0124
:1002400090933B01A0933C01B0933D0180913E010E
:1002500090913F01A0914001B09141010196A11DF3
:10026000B11D80933E0190933F01A0934001B09354
:100270004101BF91AF919F918F913F912F910F902D
:100280000FBE0F901F9018952FB7F89460913A0108
:1002900070913B0180913C0190913D012FBF0895E9
:1002A0003FB7F89480913E0190913F01A0914001A9
:1002B000B091410126B5A89B05C02F3F19F00196CA
:1002C000A11DB11D3FBF6627782F892F9A2F620F7E
:1002D000711D811D911D42E0660F771F881F991FB8
:1002E0004A95D1F70895CF92DF92EF92FF92CF9384
:1002F000DF936B017C010E945001EB01C114D1041A
:10030000E104F10479F00E9450016C1B7D0B683E02
:100310007340A0F381E0C81AD108E108F108C85180
:10032000DC4FECCFDF91CF91FF90EF90DF90CF903B
:1003300008950197009739F0880F991F880F991F2A
:1003400002970197F1F70895789484B5826084BD8F
:1003500084B5816084BD85B5826085BD85B58160C9
:1003600085BDEEE6F0E0808181608083E1E8F0E029
:100370001082808182608083808181608083E0E858
:10038000F0E0808181608083E1EBF0E08081846037
:100390008083E0EBF0E0808181608083EAE7F0E039
:1003A000808184608083808182608083808181609D
:1003B00080838081806880831092C1000895FC0151
:1003C00024853585F901E05CFF4F80819181F90139
:1003D000EE5BFF4F20813181821B930B8F73992736
:1003E0000895FC0184859585FC01E05CFF4F408108
:1003F0005181FC01EE5BFF4F208131814217530791
:1004000041F00190F081E02DE80FF91F808190E02C
:1004100008958FEF9FEF0895FC0184859585FC0179
:10042000E05CFF4F40815181FC01EE5BFF4F20817A
:1004300031814217530779F0A081B181A80FB91F0C
:100440008C91208131812F5F3F4F2F733327318370
:10045000208390E008958FEF9FEF0895FC0181A124
:10046000882329F0A489B5898C9186FFFBCF11A23E
:100470000895CF93DF93FC0126853785D901A05CD1
:10048000BF4F8D919C91119701968F739927E90128
:10049000CE5BDF4F4881598184179507D9F30D90C2
:1004A000BC91A02DA20FB31F6C93A685B785A05C4D
:1004B000BF4F11969C938E93A689B7892C9181E0AA
:1004C00090E0078C02C0880F991F0A94E2F7282B4E
:1004D0002C9381E081A30488F589E02D80818064DC
:1004E000808381E090E0DF91CF91089508951F927D
:1004F0000F920FB60F9211242F933F934F938F9328
:100500009F93EF93FF938091C00082FD1CC04091A8
:10051000C6008091E9019091EA0101968F739927B5
:100520002091EB013091EC018217930771F0E0917B
:10053000E901F091EA01E755FE4F40839093EA010B
:100540008093E90102C08091C600FF91EF919F91D5
:100550008F914F913F912F910F900FBE0F901F9051
:10056000189583E491E00E94DF01892B11F00C942F
:10057000760208951F920F920FB60F9211242F93B7
:100580003F938F939F93EF93FF932091A501309119
:10059000A6018091A7019091A8012817390731F48D
:1005A0008091C1008F7D8093C10014C0E091A701AC
:1005B000F091A801EB59FE4F20818091A701909105
:1005C000A80101968F7399279093A8018093A701A2
:1005D0002093C600FF91EF919F918F913F912F91B2
:1005E0000F900FBE0F901F9018958F929F92AF9211
:1005F000BF92CF92DF92EF92FF920F931F93CF9310
:10060000DF93CDB7DEB7FC011382128288EE93E050
:10061000A0E0B0E084839583A683B7838FE191E067
:10062000918380837587648757874687318B208BBA
:10063000138B028BF58AE48AD78AC68AB18EA08E84
:10064000938E828E8F85848F8889858F8989868F06
:100650008A89878F8B8980A3DF91CF911F910F911A
:10066000FF90EF90DF90CF90BF90AF909F908F90D2
:100670000895CF92DF92EF92FF92CF93DF93EC0138
:100680006A017B01411581EE580761057105F9F09A
:10069000EC89FD8981E090E008A002C0880F991FD5
:1006A0000A94E2F7808360E079E08DE390E0A701AF
:1006B00096010E9482132150310941095109569532
:1006C000479537952795211580E1380798F0EC89F3
:1006D000FD89108260E874E88EE190E0A701960140
:1006E0000E948213215031094109510956954795BD
:1006F00037952795E889F9893083EA89FB89208332
:1007000019A2EE89FF89408181E090E09C010C8C68
:1007100002C0220F331F0A94E2F7422B4083EE8976
:10072000FF8940819C010D8C02C0220F331F0A9467
:10073000E2F7422B4083EE89FF8940819C010E8CB9
:1007400002C0220F331F0A94E2F7422B4083EE8946
:10075000FF8920810F8C02C0880F991F0A94E2F74D
:10076000809582238083DF91CF91FF90EF90DF907F
:10077000CF900895BF92CF92DF92EF92FF92CF93E6
:10078000DF93EC016A017B01B22E411581EE58071F
:1007900061057105F9F0EC89FD8981E090E008A020
:1007A00002C0880F991F0A94E2F7808360E079E025
:1007B0008DE390E0A70196010E9482132150310938
:1007C000410951095695479537952795211580E19F
:1007D000380798F0EC89FD89108260E874E88EE1B2
:1007E00090E0A70196010E9482132150310941092E
:1007F00051095695479537952795E889F9893083AA
:10080000EA89FB892083E88DF98DB082EE89FF8922
:10081000408181E090E09C010C8C02C0220F331FCC
:100820000A94E2F7422B4083EE89FF8940819C01C4
:100830000D8C02C0220F331F0A94E2F7422B408333
:10084000EE89FF8940819C010E8C02C0220F331F6C
:100850000A94E2F7422B4083EE89FF8920810F8CB6
:1008600002C0880F991F0A94E2F780958223808343
:10087000DF91CF91FF90EF90DF90CF90BF900895E0
:10088000CF93DF93FC0186859785DC01A05CBF4F89
:10089000EC01CE5BDF4F4D915C911197288139813E
:1008A00042175307C1F7A689B7894C9181E090E0C0
:1008B0009C01048C02C0220F331F0A94E2F720959A
:1008C00024232C93A689B7894C919C01058C02C0E6
:1008D000220F331F0A94E2F7209524232C93A68934
:1008E000B7894C919C01068C02C0220F331F0A94D9
:1008F000E2F7209524232C93A689B7892C91078CA5
:1009000002C0880F991F0A94E2F7809582238C9386
:1009100084859585FC01EE5BFF4F20813181FC01D0
:10092000E05CFF4F31832083DF91CF91089581E018
:100930000895CF92DF92EF92FF920F931F93CF9380
:10094000DF936C017A01EB01E60EF71E00E010E088
:10095000CE15DF0561F06991D601ED91FC91019012
:10096000F081E02DC6010995080F191FF1CFC801CC
:10097000DF91CF911F910F91FF90EF90DF90CF907B
:100980000895EF92FF920F931F93CF93DF938C0103
:10099000FB01C0E0D0E064917F018FEFE81AF80A14
:1009A000662361F0D801ED91FC910190F081E02D7A
:1009B000C8010995C80FD91FF701EDCFCE01DF910E
:1009C000CF911F910F91FF90EF900895AF92BF923A
:1009D000CF92DF92EF92FF920F931F93CF93DF930B
:1009E0007C016B01C0E0D0E000E010E0D60114967D
:1009F0008D919C911597C817D90788F4D701ED916F
:100A0000FC91A080B180BE01C6010E94610D682FDB
:100A1000C701F5010995080F191F2196E7CFC801F5
:100A2000DF91CF911F910F91FF90EF90DF90CF90CA
:100A3000BF90AF9008950C944D11DC01ED91FC91A5
:100A40000190F081E02D0994DB01ED91FC9111976B
:100A50000190F081E02DBC01CD0109940F931F930B
:100A6000CF93DF93EC016DE00E941D058C016AE0DD
:100A7000CE010E941D05800F911FDF91CF911F9124
:100A80000F9108950F931F93CF93DF93EC010E9472
:100A9000C1048C01CE010E942E05800F911FDF91B1
:100AA000CF911F910F9108950F931F93CF93DF93D1
:100AB000EC010E94E6048C01CE010E942E05800FFD
:100AC000911FDF91CF911F910F9108950F931F9365
:100AD000CF93DF93EC010E944D118C01CE010E9457
:100AE0002E05800F911FDF91CF911F910F910895D7
:100AF0000F931F93CF93DF93EC010E941D058C0190
:100B0000CE010E942E05800F911FDF91CF911F9182
:100B10000F9108950F931F93CF93DF93EC010E94E1
:100B200024058C01CE010E942E05800F911FDF91BC
:100B3000CF911F910F9108958F929F92AF92BF9284
:100B4000CF92DF92EF92FF920F931F93CF93DF9399
:100B5000CDB7DEB7A1970FB6F894DEBF0FBECDBFFD
:100B60007C01C42EE52FCB01D22E19A221E02D1538
:100B700010F02AE0D22E8E010F5D1F4F8D2C912C8C
:100B8000A12CB12C6C2D7E2FA50194010E94821303
:100B90008C2DD29E80191124015011098A3014F431
:100BA000805D01C0895CF801808321153105410514
:100BB000510521F0C22EE32FCA01E4CFB801C701CD
:100BC0000E944D11A1960FB6F894DEBF0FBECDBFA7
:100BD000DF91CF911F910F91FF90EF90DF90CF9019
:100BE000BF90AF909F908F900895CF92DF92EF9239
:100BF000FF920F931F93CF93DF93EC016A017B0168
:100C00002115310579F4E881F9810190F081E02D19
:100C1000642FDF91CF911F910F91FF90EF90DF90A4
:100C2000CF9009942A303105E9F477FF1AC06DE2BC
:100C30000E941D058C0144275527BA014C195D09F6
:100C40006E097F092AE0CE010E949C05800F911F4A
:100C5000DF91CF911F910F91FF90EF90DF90CF9098
:100C600008952AE0B701A601CE01DF91CF911F912F
:100C70000F91FF90EF90DF90CF900C949C059A011C
:100C8000AB01662757FD6095762F0C94F5050F9301
:100C90001F93CF93DF93EC019A01AB01662757FDB9
:100CA0006095762F0E94F5058C01CE010E942E05DD
:100CB000800F911FDF91CF911F910F9108950F9396
:100CC0001F93CF93DF93EC010E94F5058C01CE01B9
:100CD0000E942E05800F911FDF91CF911F910F91E0
:100CE00008952115310541F4DC01ED91FC9101904D
:100CF000F081E02D642F09940C949C059A01462FF5
:100D000050E060E070E00C9471060F931F93CF9356
:100D1000DF93EC019A01462F50E060E070E00E9402
:100D200071068C01CE010E942E05800F911FDF916C
:100D3000CF911F910F9108959A01AB0160E070E08F
:100D40000C9471060F931F93CF93DF93EC019A01DC
:100D5000AB0160E070E00E9471068C01CE010E9440
:100D60002E05800F911FDF91CF911F910F91089554
:100D70000F931F93CF93DF93EC010E9471068C01B8
:100D8000CE010E942E05800F911FDF91CF911F9100
:100D90000F9108954F925F926F927F928F929F92E0
:100DA000AF92BF92CF92DF92EF92FF920F931F9379
:100DB000CF93DF93EC016A017B01B22E9A01AB0164
:100DC000C701B6010E947E13882319F06BE271E01F
:100DD00027C026013701E89477F82FEF3FEF4FE760
:100DE0005FE7C301B2010E947E1381110DC02FEF96
:100DF0003FEF4FE75FE7C301B2010E94C811181629
:100E00001CF46FE271E00CC02FEF3FEF4FE75FE49F
:100E1000C701B6010E9417131816ACF463E371E022
:100E2000CE01DF91CF911F910F91FF90EF90DF9056
:100E3000CF90BF90AF909F908F907F906F905F907A
:100E40004F900C944D112FEF3FEF4FE75FECC70130
:100E5000B6010E94C81187FDE1CF20E030E0A90172
:100E6000C701B6010E94C81187FF0AC06DE2CE011A
:100E70000E941D058C01F7FAF094F7F8F09402C077
:100E800000E010E0A12C60E070E080E09FE3AB1494
:100E900041F020E030E040E251E40E94CC11A39404
:100EA000F6CF9B01AC01C701B6010E9464116B0132
:100EB0007C010E9439122B013C010E9465129B01AA
:100EC000AC01C701B6010E9463116B017C012AE0ED
:100ED000B301A201CE010E949C05080F191FBB207F
:100EE00039F067E371E0CE010E944D11080F191F20
:100EF0007B2C772041F120E030E040E251E4C70153
:100F0000B6010E941B136B017C010E9434124B013D
:100F1000AA2497FCA094BA2C2AE030E0B501A401E1
:100F2000CE010E94F505080F191FC501B4010E94EA
:100F300067129B01AC01C701B6010E9463116B01EE
:100F40007C017A94D6CFC801DF91CF911F910F9188
:100F5000FF90EF90DF90CF90BF90AF909F908F90D9
:100F60007F906F905F904F9008950C94CA060F93F6
:100F70001F93CF93DF93EC010E94CA068C01CE0130
:100F80000E942E05800F911FDF91CF911F910F912D
:100F90000895FC01808191810C946314CF93DF93B9
:100FA000EC0188819981009711F00E9463141982E5
:100FB00018821D821C821B821A82DF91CF910895B4
:100FC0000F931F93CF93DF93EC018B016F5F7F4FE4
:100FD000888199810E94F214009731F09983888367
:100FE0001B830A8381E001C080E0DF91CF911F91D4
:100FF0000F910895CF93DF93EC0188819981892B1C
:1010000029F08A819B818617970760F4CE010E94A0
:10101000E007882341F08C819D81892B19F4E881B8
:10102000F981108281E0DF91CF910895EF92FF92D4
:101030000F931F93CF93DF93EC017B018A01BA01D9
:101040000E94FA07811104C0CE010E94CE0707C09A
:101050001D830C83B701888199810E942E16CE01D1
:10106000DF91CF911F910F91FF90EF900895FC01B8
:1010700011821082138212821582148216826115E7
:10108000710559F0FB0101900020E9F7AF014150D3
:101090005109461B570B0C9416080895CF93DF9304
:1010A000EC01FB018617970761F060817181611582
:1010B000710529F0448155810E94160802C00E94E2
:1010C000CE07CE01DF91CF910895FC0111821082ED
:1010D000138212821582148216820C944E08CF93CA
:1010E000DF93EC016115710561F0FB0101900020B7
:1010F000E9F7AF0141505109461B570B0E941608F2
:1011000002C00E94CE07CE01DF91CF910895CF9308
:10111000DF9300D0CDB7DEB7FC01118210821382BD
:10112000128215821482168269831A82BE016F5F51
:101130007F4F0E946F080F900F90DF91CF9108951D
:101140000F931F93CF93DF93CDB7DEB729970FB6D9
:10115000F894DEBF0FBECDBF8C01862FF80111823F
:1011600010821382128215821482168250E0BE0110
:101170006F5F7F4F90E00E940617BE016F5F7F4F49
:10118000C8010E946F0829960FB6F894DEBF0FBE03
:10119000CDBFDF91CF911F910F9108950F931F93B2
:1011A000CF93DF93CDB7DEB762970FB6F894DEBF6B
:1011B0000FBECDBF8C01CB01F801118210821382CA
:1011C000128215821482168250E0BE016F5F7F4F3B
:1011D0000E947716BE016F5F7F4FC8010E946F08A3
:1011E00062960FB6F894DEBF0FBECDBFDF91CF91F0
:1011F0001F910F9108950F931F93CF93DF93CDB756
:10120000DEB761970FB6F894DEBF0FBECDBF8C017D
:10121000CB01F8011182108213821282158214828E
:10122000168250E0BE016F5F7F4F0E940617BE011D
:101230006F5F7F4FC8010E946F0861960FB6F894E8
:10124000DEBF0FBECDBFDF91CF911F910F910895EB
:101250000F931F93CF93DF93CDB7DEB7A2970FB64F
:10126000F894DEBF0FBECDBF8C01CB01BA01F801EF
:10127000118210821382128215821482168230E04B
:10128000AE014F5F5F4F0E949816BE016F5F7F4FA8
:10129000C8010E946F08A2960FB6F894DEBF0FBE79
:1012A000CDBFDF91CF911F910F9108950F931F93A1
:1012B000CF93DF93CDB7DEB7A1970FB6F894DEBF1B
:1012C0000FBECDBF8C01CB01BA01F8011182108293
:1012D0001382128215821482168230E0AE014F5FB3
:1012E0005F4F0E94E116BE016F5F7F4FC8010E94F1
:1012F0006F08A1960FB6F894DEBF0FBECDBFDF9189
:10130000CF911F910F910895EF92FF920F931F932A
:10131000CF93DF93CDB7DEB7A1970FB6F894DEBFBA
:101320000FBECDBF7C01CB01BA01F7011182108243
:101330001382128215821482168242E0420F8E01BD
:101340000F5F1F4F0E94AA13BC01C7010E946F08C4
:10135000A1960FB6F894DEBF0FBECDBFDF91CF913F
:101360001F910F91FF90EF900895EF92FF920F93CE
:101370001F93CF93DF93CDB7DEB7A1970FB6F89445
:10138000DEBF0FBECDBF7C01CB01BA01F7011182D8
:1013900010821382128215821482168242E0420F5A
:1013A0008E010F5F1F4F0E94AA13BC01C7010E944C
:1013B0006F08A1960FB6F894DEBF0FBECDBFDF91C8
:1013C000CF911F910F91FF90EF900895EF92FF92B0
:1013D0000F931F93CF93DF93EC017B010C811D8151
:1013E0006115710511F480E016C04115510591F0A9
:1013F000040F151FB8010E94FA078823A1F3288162
:1014000039818C819D81B701820F931F0E942E1616
:101410001D830C8381E0DF91CF911F910F91FF908D
:10142000EF900895FB0144815581608171810C9496
:10143000E6096115710559F0FB0101900020E9F7FB
:10144000AF0141505109461B570B0C94E60980E04F
:101450000895CF93DF9300D0CDB7DEB769831A82AA
:1014600041E050E0BE016F5F7F4F0E94E6090F90A0
:101470000F90DF91CF910895EF92FF920F931F93FA
:10148000CF93DF9300D000D0CDB7DEB77C01862F9D
:101490004AE050E08E010F5F1F4FB80190E00E94BC
:1014A0007716F80101900020E9F7AF01415051098A
:1014B000401B510BB801C7010E94E6090F900F9025
:1014C0000F900F90DF91CF911F910F91FF90EF90B0
:1014D0000895EF92FF920F931F93CF93DF93CDB7B1
:1014E000DEB727970FB6F894DEBF0FBECDBF7C01E5
:1014F000CB014AE050E08E010F5F1F4FB8010E9400
:101500007716F80101900020E9F7AF014150510929
:10151000401B510BB801C7010E94E60927960FB680
:10152000F894DEBF0FBECDBFDF91CF911F910F9119
:10153000FF90EF900895EF92FF920F931F93CF9338
:10154000DF9300D000D000D0CDB7DEB77C01CB0157
:101550004AE050E08E010F5F1F4FB8010E9406174E
:10156000F80101900020E9F7AF0141505109401BFB
:10157000510BB801C7010E94E60926960FB6F894F0
:10158000DEBF0FBECDBFDF91CF911F910F91FF90B6
:10159000EF900895EF92FF920F931F93CF93DF93F5
:1015A000CDB7DEB72C970FB6F894DEBF0FBECDBF18
:1015B0007C01CB01BA012AE030E08E010F5F1F4FA2
:1015C000A8010E949816F80101900020E9F7AF01E8
:1015D00041505109401B510BB801C7010E94E60957
:1015E0002C960FB6F894DEBF0FBECDBFDF91CF9122
:1015F0001F910F91FF90EF900895EF92FF920F933C
:101600001F93CF93DF93CDB7DEB72B970FB6F89428
:10161000DEBF0FBECDBF7C01CB01BA012AE030E0B6
:101620008E010F5F1F4FA8010E94E116F801019083
:101630000020E9F7AF0141505109401B510BB8019F
:10164000C7010E94E6092B960FB6F894DEBF0FBEC5
:10165000CDBFDF91CF911F910F91FF90EF90089533
:10166000EF92FF920F931F93CF93DF93CDB7DEB727
:1016700064970FB6F894DEBF0FBECDBF7C01CB01DF
:10168000BA018E010F5F1F4F26E048E00E94AA13A7
:10169000FC0101900020E9F7AF0141505109481BBE
:1016A000590BBC01C7010E94E60964960FB6F89475
:1016B000DEBF0FBECDBFDF91CF911F910F91FF9085
:1016C000EF900895EF92FF920F931F93CF93DF93C4
:1016D000CDB7DEB764970FB6F894DEBF0FBECDBFAF
:1016E0007C01CB01BA018E010F5F1F4F26E048E05D
:1016F0000E94AA13FC0101900020E9F7AF014150BC
:101700005109481B590BBC01C7010E94E6096496A8
:101710000FB6F894DEBF0FBECDBFDF91CF911F9102
:101720000F91FF90EF900895CF93DF93EC01FB01B1
:1017300044815581608171810E94E609811103C055
:10174000CE010E94CE07CE01DF91CF910895CF93B5
:10175000DF93EC016115710569F0FB010190002038
:10176000E9F7AF0141505109461B570B0E94E609AA
:10177000811103C0CE010E94CE07CE01DF91CF912F
:101780000895CF93DF93EC010E94290A811103C0D1
:10179000CE010E94CE07CE01DF91CF910895CF9365
:1017A000DF93EC010E943C0A811103C0CE010E942C
:1017B000CE07CE01DF91CF910895CF93DF93EC0157
:1017C0000E94690A811103C0CE010E94CE07CE019A
:1017D000DF91CF910895CF93DF93EC010E949B0A94
:1017E000811103C0CE010E94CE07CE01DF91CF91BF
:1017F0000895CF93DF93EC010E94CA0A811103C0C0
:10180000CE010E94CE07CE01DF91CF910895CF93F4
:10181000DF93EC010E94FD0A811103C0CE010E94FA
:10182000CE07CE01DF91CF910895CF93DF93EC01E6
:101830000E94300B811103C0CE010E94CE07CE0161
:10184000DF91CF910895CF93DF93EC010E94620B5B
:10185000811103C0CE010E94CE07CE01DF91CF914E
:101860000895CF93DF93DC01ED91FC91EB01A8810A
:10187000B981309711F01097C9F4109759F0EB0126
:101880002C813D81232B31F08C9190E091958195B5
:10189000910914C0309781F0DC0114968D919C91D0
:1018A0001597892B49F0808190E008C0BD01CF01D8
:1018B000DF91CF910C94251680E090E0DF91CF91DD
:1018C0000895FC0144815581FB0124813581421733
:1018D000530741F40E94310C21E0892B09F020E0EC
:1018E000822F089580E00895FC0124813581232B07
:1018F00031F421E061157105A1F0FB0108C0FC0184
:10190000808191816115710531F421E0FC018081B4
:10191000882339F005C00E94251621E0892B09F0A3
:1019200020E0822F08950E94310C892F881F88277C
:10193000881F08950E94310C21E0181619060CF03A
:1019400020E0822F08950E94310C21E0181619061C
:101950000CF420E0822F08950E94310C892F80958D
:10196000881F8827881F0895EF92FF920F931F9377
:10197000CF93DF938617970731F1FC0124813581DE
:10198000FB014481558124173507F9F4232BD9F045
:10199000FC0100811181FB01C081D181F80181919D
:1019A0008F01882381F0992787FD90950E94EF157C
:1019B0007C018991992787FD90950E94EF15E81683
:1019C000F90661F302C081E001C080E0DF91CF91B0
:1019D0001F910F91FF90EF900895FA01DB0114968B
:1019E0004D915C911597DC0114962D913C911597C2
:1019F000241B350B2E173F0788F08D919C91009783
:101A000069F0DB016D917C916115710539F08E0FE4
:101A10009F1F0E94351621E0892B09F020E0822FBC
:101A20000895FC0144815581FB01248135814217D1
:101A3000530720F040E050E00C94ED0C80E0089556
:101A4000FC0184819581DB0114964D915C91159781
:101A50008417950798F0208131812115310571F0A7
:101A60006D917C916115710549F0841B950B820F76
:101A7000931F0E94251621E0892B09F020E0822F78
:101A80000895DC0114962D913C9115976217730708
:101A900028F4ED91FC91E60FF71F40830895FC01B7
:101AA000848195816817790720F48081918100975E
:101AB00029F41092ED018DEE91E00895860F971FA5
:101AC0000895FC01248135816217730748F48081F1
:101AD0009181009729F0FC01E60FF71F808108959E
:101AE00080E008950C94610D0F931F93CF93DF93C3
:101AF000EB0141155105E9F02097D9F0FC01648113
:101B0000758126173707A0F4621B730B8A010150F9
:101B100011096017710708F48B01FC016081718164
:101B2000620F731FA801CE010E944316C00FD11F80
:101B30001882DF91CF911F910F910895CF93DF937A
:101B4000FC01848195814817590778F4C081D181BF
:101B5000772767FD7095CE01840F951F0E941A1696
:101B6000009719F08C1B9D0B02C08FEF9FEFDF9148
:101B7000CF91089540E050E00C949E0DCF93DF93F9
:101B8000FC01848195814817590778F4C081D1817F
:101B9000FB0160817181CE01840F951F0E945D164B
:101BA000009719F08C1B9D0B02C08FEF9FEFDF9108
:101BB000CF91089540E050E00C94BE0DDF92EF927B
:101BC000FF920F931F93CF93DF93EC018C819D8144
:101BD0004817590718F08FEF9FEF1BC08A010F5F5E
:101BE0001F4FE881F981E00FF11FD0801082E8805B
:101BF000F980772767FD7095C7010E945216F7019B
:101C0000E00FF11FD082009731F328813981821BC8
:101C1000930BDF91CF911F910F91FF90EF90DF9089
:101C20000895FC0144815581415051090C94DE0D09
:101C3000AF92BF92CF92DF92EF92FF920F931F93DA
:101C4000CF93DF937B01EA01FB014481558141156C
:101C5000510569F1FC01248135812115310539F1E6
:101C60002417350720F1C217D30710F0E901219797
:101C7000FC0100811181C801AA24AA94BB24BA9452
:101C80006801CC0EDD1EC816D906A0F0F7016081F0
:101C900071810E945D16009769F09C01201B310B39
:101CA000C217D30708F4950101965901ECCF8FEFC5
:101CB0009FEF01C0C501DF91CF911F910F91FF9060
:101CC000EF90DF90CF90BF90AF900895FC014481DA
:101CD0005581FB0124813581421B530B0C94180E56
:101CE000BF92CF92DF92EF92FF920F931F93CF9309
:101CF000DF936C017B01EA0189012417350720F489
:101D00008D2FE901042F182F6AE071E0C6010E94AF
:101D10003708D70114968D919C9115978C179D07C4
:101D2000C8F08017910708F48C01D701ED91FC9160
:101D30001197E00FF11FB08010826D917C916C0FB4
:101D40007D1FC6010E946F08D701ED91FC91E00F45
:101D5000F11FB082C601DF91CF911F910F91FF90CB
:101D6000EF90DF90CF90BF900895CF93DF93EC0179
:101D7000FB01248135810E94700ECE01DF91CF914D
:101D80000895DC01ED91FC91309729F408958613B4
:101D900001C04083319680818111F9CF08952F923F
:101DA0003F924F925F926F927F928F929F92AF92EB
:101DB000BF92CF92DF92EF92FF920F931F93CF9338
:101DC000DF93EC015B017A014C805D80411451048A
:101DD00009F4C5C0FB01648075806114710409F4C5
:101DE000BEC0FA01C480D580C618D7080881198101
:101DF000C114D104C1F4F50160817181C8010E9450
:101E00005D16EC01009709F4AAC0F70160817181A9
:101E100044815581CE010E94FF15F701048115818F
:101E20000C0F1D1FE8CFD7FC05C0FB0120803180BF
:101E3000420143C04801F50160817181C8010E94DF
:101E40005D162C01009719F13201601A710AA30185
:101E5000B801C4010E94FF15680C791CF70160816C
:101E6000718144815581C3010E94FF15F70184806F
:101E70009580860C971CF50104811581040D151DB4
:101E80008C819D818C0D9D1D9D838C83D4CFB80149
:101E9000C401DF91CF911F910F91FF90EF90DF90E0
:101EA000CF90BF90AF909F908F907F906F905F90FA
:101EB0004F903F902F900C942E16B101C8010E94B4
:101EC0005D16009731F08C01060D171D8C0C9D1CC2
:101ED000F4CF8414950409F442C08A819B8188154B
:101EE000990530F4B401CE010E94E0078823B9F1CE
:101EF0004C815D814150510957FD31C0B501CE0182
:101F00000E94180E8C0197FD2AC088819981F501E5
:101F100024813581200F311F820F931F4C815D81F9
:101F2000421B530BBC018C0D9D1D0E9408168C8119
:101F30009D818C0D9D1D9D838C83E881F981E80F27
:101F4000F91F108288819981F70160817181448134
:101F50005581800F911F0E94FF15A801CBCFDF9103
:101F6000CF911F910F91FF90EF90DF90CF90BF9096
:101F7000AF909F908F907F906F905F904F903F9029
:101F80002F900895CF93DF93EC019B01BA014C8110
:101F90005D812417350718F56115710501F1C90137
:101FA000860F971F4817590718F4BA01621B730B65
:101FB00088819981461B570B5D834C83421B530BD1
:101FC000620F731F680F791F820F931F0E944316C1
:101FD000E881F9818C819D81E80FF91F1082DF91E2
:101FE000CF910895FC01448155816417750720F451
:101FF000461B570B0C94C20F0895CF93DF93FC013F
:10200000C081D181209751F08881882339F09927A8
:1020100087FD90950E94EF158993F6CFDF91CF91C0
:102020000895CF93DF93FC01C081D181209751F0B7
:102030008881882339F0992787FD90950E94F715AC
:102040008993F6CFDF91CF910895AF92BF92CF924F
:10205000DF92EF92FF920F931F93CF93DF937C0158
:10206000DC01CD90DC901197C114D10409F441C07A
:102070001496CD91DC9115972097D9F156018501E1
:10208000BFEFAB1ABB0AF8018081992787FD9095B5
:102090000E94E715892B99F72197CC0DDD1D8881CA
:1020A000992787FD90950E94E715892B91F4AE0141
:1020B0004F5F5F4F401B510BD70115965C934E93BA
:1020C0001497C016D10650F4B801C6010E94FF153E
:1020D00005C0C017D10758F32197E1CFD701ED9183
:1020E000FC91119714968D919C911597E80FF91F0B
:1020F0001082DF91CF911F910F91FF90EF90DF90B1
:10210000CF90BF90AF900895FC018081918100979E
:1021100011F00C94C01560E070E0CB010895FC0153
:1021200080819181009711F00C94BC1560E070E003
:10213000CB0108950E94A40140E855E260E070E000
:1021400083E491E00E94390366E071E083E491E06A
:102150000E941B054AE050E061E070E083E491E0FA
:102160000E94470664E670E080E090E00E94730100
:102170006BE071E083E491E00E941B054AE050E0CF
:1021800062E070E083E491E00E94470664E670E05C
:1021900080E090E00E94730160E171E083E491E0EF
:1021A0000E941B054AE050E063E070E083E491E0A8
:1021B0000E94470664E670E080E090E00E947301B0
:1021C000C3E0D0E0219665E171E083E491E00E94F4
:1021D0001B054AE050E0BE0183E491E00E944706FF
:1021E00064E670E080E090E00E947301EBCF109213
:1021F00046011092450188EE93E0A0E0B0E08093A4
:10220000470190934801A0934901B0934A018FE19F
:1022100091E0909344018093430189EA91E0909387
:10222000500180934F0185E691E090935201809395
:10223000510185EC90E0909354018093530184EC1C
:1022400090E0909356018093550180EC90E090933C
:1022500058018093570181EC90E090935A0180934C
:10226000590182EC90E090935C0180935B0186ECD5
:1022700090E090935E0180935D0184E080935F0124
:1022800083E08093600187E08093610185E0809323
:10229000620181E08093630108956115710581F009
:1022A000DB010D900020E9F7AD0141505109461BBB
:1022B000570BDC01ED91FC910280F381E02D099434
:1022C00080E090E008955058BB27AA270ED075C132
:1022D00066D130F06BD120F031F49F3F11F41EF441
:1022E0005BC10EF4E095E7FB51C1E92F77D180F394
:1022F000BA17620773078407950718F071F49EF503
:102300008FC10EF4E0950B2EBA2FA02D0B01B90151
:1023100090010C01CA01A0011124FF27591B99F05B
:10232000593F50F4503E68F11A16F040A22F232F67
:10233000342F4427585FF3CF469537952795A795B7
:10234000F0405395C9F77EF41F16BA0B620B730B5E
:10235000840BBAF09150A1F0FF0FBB1F661F771FCF
:10236000881FC2F70EC0BA0F621F731F841F48F484
:10237000879577956795B795F7959E3F08F0B3CF0A
:102380009395880F08F09927EE0F979587950895F4
:10239000D9D008F481E008950CD00FC107D140F0E6
:1023A000FED030F021F45F3F19F0F0C0511139C177
:1023B000F3C014D198F39923C9F35523B1F3951BB6
:1023C000550BBB27AA2762177307840738F09F5F56
:1023D0005F4F220F331F441FAA1FA9F333D00E2EC5
:1023E0003AF0E0E830D091505040E695001CCAF732
:1023F00029D0FE2F27D0660F771F881FBB1F2617F7
:1024000037074807AB07B0E809F0BB0B802DBF01C9
:10241000FF2793585F4F2AF09E3F510568F0B6C0E2
:1024200000C15F3FECF3983EDCF3869577956795A6
:10243000B795F7959F5FC9F7880F911D969587957A
:1024400097F90895E1E0660F771F881FBB1F621799
:1024500073078407BA0720F0621B730B840BBA0B57
:10246000EE1F88F7E095089504D06894B111D9C0A3
:102470000895BCD088F09F5790F0B92F9927B75195
:10248000A0F0D1F0660F771F881F991F1AF0BA9538
:10249000C9F712C0B13081F0C3D0B1E00895C0C017
:1024A000672F782F8827B85F39F0B93FCCF386952E
:1024B00077956795B395D9F73EF49095809570958B
:1024C00061957F4F8F4F9F4F0895E89409C097FB08
:1024D0003EF490958095709561957F4F8F4F9F4FFB
:1024E0009923A9F0F92F96E9BB279395F69587953F
:1024F00077956795B795F111F8CFFAF4BB0F11F402
:1025000060FF1BC06F5F7F4F8F4F9F4F16C08823A8
:1025100011F096E911C0772321F09EE8872F762FDE
:1025200005C0662371F096E8862F70E060E02AF01F
:102530009A95660F771F881FDAF7880F969587950B
:1025400097F90895990F0008550FAA0BE0E8FEEFE0
:1025500016161706E807F907C0F012161306E40767
:10256000F50798F0621B730B840B950B39F40A2660
:1025700061F0232B242B252B21F408950A2609F43E
:10258000A140A6958FEF811D811D089597F99F6742
:1025900080E870E060E008959FEF80EC08950024EB
:1025A0000A941616170618060906089500240A94B8
:1025B00012161306140605060895092E0394000C3E
:1025C00011F4882352F0BB0F40F4BF2B11F460FFCD
:1025D00004C06F5F7F4F8F4F9F4F089557FD9058F6
:1025E000440F551F59F05F3F71F04795880F97FBD7
:1025F000991F61F09F3F79F0879508951216130691
:102600001406551FF2CF4695F1DF08C016161706BF
:102610001806991FF1CF86957105610508940895F4
:10262000E894BB2766277727CB0197F908958ADFBF
:1026300008F48FEF08950BD0C0CFB1DF28F0B6DFDC
:1026400018F0952309F0A2CFA7CF1124EACFC6DF57
:10265000A0F3959FD1F3950F50E0551F629FF001B5
:10266000729FBB27F00DB11D639FAA27F00DB11D0E
:10267000AA1F649F6627B00DA11D661F829F222797
:10268000B00DA11D621F739FB00DA11D621F839F1E
:10269000A00D611D221F749F3327A00D611D231FF4
:1026A000849F600D211D822F762F6A2F11249F5742
:1026B00050408AF0E1F088234AF0EE0FFF1FBB1F65
:1026C000661F771F881F91505040A9F79E3F510504
:1026D00070F05CCFA6CF5F3FECF3983EDCF38695BD
:1026E00077956795B795F795E7959F5FC1F7FE2BAF
:1026F000880F911D9695879597F9089523DF880B8C
:10270000990B0895A1E21A2EAA1BBB1BFD010DC057
:10271000AA1FBB1FEE1FFF1FA217B307E407F50791
:1027200020F0A21BB30BE40BF50B661F771F881F6D
:10273000991F1A9469F760957095809590959B0103
:10274000AC01BD01CF010895EE0FFF1F0590F4917C
:10275000E02D0994EF920F931F93CF93DF93E8013D
:1027600047FF02C034E101C034E0E42FFF27E7FD5A
:10277000F095F7FF03C0F195E195F109E32E022FE3
:102780002E2FAE010E941C17CE01DF91CF911F9119
:102790000F91EF900895CF93DF938230910510F45D
:1027A00082E090E0E091F001F091F10120E030E072
:1027B000A0E0B0E0309739F14081518148175907C6
:1027C000B8F04817590771F482819381109729F066
:1027D00013969C938E9312972CC09093F101809343
:1027E000F00127C02115310531F04217530718F0C9
:1027F000A901DB0101C0EF019A01BD01DF010280E7
:10280000F381E02DD7CF21153105F9F0281B390BC5
:102810002430310580F48A819B816115710521F096
:10282000FB019383828304C09093F1018093F001B4
:10283000FE01329644C0FE01E20FF31F8193919393
:1028400022503109398328833AC02091EE0130911A
:10285000EF01232B41F420910201309103013093C9
:10286000EF012093EE01209100013091010121152B
:10287000310541F42DB73EB7409104015091050157
:10288000241B350BE091EE01F091EF01E217F30705
:10289000A0F42E1B3F0B2817390778F0AC014E5FD0
:1028A0005F4F2417350748F04E0F5F1F5093EF011D
:1028B0004093EE018193919302C0E0E0F0E0CF01FC
:1028C000DF91CF910895CF93DF93009709F487C0EC
:1028D000FC01329713821282C091F001D091F10174
:1028E000209781F420813181280F391F8091EE01DA
:1028F0009091EF018217930779F5F093EF01E09340
:10290000EE016DC0DE0120E030E0AE17BF0750F4ED
:1029100012964D915C9113979D014115510509F156
:10292000DA01F3CFB383A28340815181840F951FD5
:102930008A179B0771F48D919C911197840F951FB5
:1029400002969183808312968D919C911397938325
:1029500082832115310529F4F093F101E093F00110
:102960003EC0D9011396FC93EE9312974D915D9161
:10297000A40FB51FEA17FB0779F480819181840FBA
:10298000951F0296D90111969C938E938281938113
:1029900013969C938E931297E0E0F0E08A819B81DE
:1029A000009719F0FE01EC01F9CFCE0102962881C3
:1029B0003981820F931F2091EE013091EF0128178A
:1029C000390769F4309729F41092F1011092F0015F
:1029D00002C013821282D093EF01C093EE01DF9107
:1029E000CF910895A0E0B0E0E8EFF4E10C94271B4C
:1029F000EC01CB01209719F40E94CB13B8C0FE0163
:102A0000E60FF71F9E0122503109E217F30708F481
:102A1000ACC0D9010D911C91119706171707B8F09A
:102A20000530110508F49FC0A8014450510946170C
:102A3000570708F498C002501109061B170B0193A1
:102A400011936D937C93CF010E9463148CC05B0142
:102A5000A01AB10A4E01800E911EA091F001B09112
:102A6000F101612C712C60E070E0109709F449C00D
:102A7000A815B905C9F5ED90FC901197670142E0E2
:102A8000C40ED11CCA14DB0478F147018A189B08D4
:102A9000640142E0C40ED11C1296BC9012971396AA
:102AA000AC91B5E0CB16D10440F0B282A383918201
:102AB0008082D9018D939C9309C00E5F1F4F0E0D2C
:102AC0001F1DF90111830083EB2DFA2F611571058C
:102AD00031F0DB011396FC93EE93129744C0F09310
:102AE000F101E093F0013FC06D917C911197661662
:102AF000770608F43B01BD0112960D90BC91A02D04
:102B0000B4CF6091EE017091EF0168157905E9F499
:102B100068167906D0F440910001509101014115E9
:102B2000510541F44DB75EB7609104017091050104
:102B3000461B570BE417F507C0F4F093EF01E09341
:102B4000EE01F901918380830EC00E94CB137C01BA
:102B5000009759F0A801BE010E94FF15CE010E9406
:102B60006314C70104C0CE0102C080E090E0CDB77D
:102B7000DEB7EEE00C94431B662777270C949A1877
:102B80001F93FC0199278827BC01E894119110320A
:102B9000E9F3193010F01E30C8F31B3251F01D322A
:102BA00049F4689406C00E94CC16610F711D811D06
:102BB000911D119110531A30B0F33EF49095809509
:102BC000709561957F4F8F4F9F4F1F910895911181
:102BD000F0C4803219F089508550D0F708959111D2
:102BE000089581548A5108F4805E855A08959111A0
:102BF000089581568A5108F4805285580895FB0142
:102C0000DC0102C001900D9241505040D8F7089568
:102C10006817790768F4FB01DC01E40FF51FA40FC6
:102C2000B51F02C002900E9241505040D8F708954F
:102C30000C94FF15FC018191861721F08823D9F7A8
:102C4000992708953197CF010895FB01DC018D91FB
:102C5000019080190110D9F3990B0895FB01DC0153
:102C600001900D920020E1F70895FB01DC01415035
:102C7000504030F08D910190801919F40020B9F77F
:102C8000881B990B0895FB01DC014150504048F02E
:102C900001900D920020C9F701C01D924150504093
:102CA000E0F70895FC0181E090E00190061609F438
:102CB000CF010020D1F701970895FB0151915523D1
:102CC000A9F0BF01DC014D9145174111E1F759F41D
:102CD000CD010190002049F04D9140154111C9F3FB
:102CE000FB014111EFCF81E090E001970895FB01D6
:102CF0009F01E8944230C4F04532B4F44A3029F4DC
:102D000097FB1EF4909581959F4F642F77270E9423
:102D10000F1B805D8A330CF0895D8193CB01009796
:102D2000A1F716F45DE251931082C9010C94F41AD4
:102D3000FA01CF93FF93EF93223044F1253234F51B
:102D4000C22FE894CA3049F497FB3EF490958095E1
:102D5000709561957F4F8F4F9F4F2C2F33274427BE
:102D60005527FF93EF930E948213EF91FF91605DCF
:102D70006A330CF0695D6193B901CA01605070401B
:102D80008040904051F716F4CDE2C19310828F91AC
:102D90009F91CF910C94F41A592F482F372F262F3B
:102DA000660F771F881F991F660F771F881F991F4F
:102DB000620F731F841F951F660F771F881F991F4F
:102DC0000895FA01CF93FF93EF932230CCF0253290
:102DD000BCF4C22F2C2F332744275527FF93EF93A2
:102DE0000E948213EF91FF91605D6A330CF0695D80
:102DF0006193B901CA01605070408040904051F722
:102E000010828F919F91CF910C94F41AFB019F0136
:102E1000423074F0453264F4642F77270E940F1B10
:102E2000805D8A330CF0895D8193CB010097A1F717
:102E30001082C9010C94F41A6F927F929F92AF9204
:102E4000BF92CF92DF92EF92FF920F931F93CF9397
:102E5000DF93CDB7DEB729970FB6F894DEBF0FBE6C
:102E6000CDBF6A01B22E102F0C3320F4FF24F3944F
:102E7000F00E02C04CE3F42E0F2D27E0AE014F5FA1
:102E80005F4F0E94011A7981272F2970213031F07C
:102E9000E1FC06C0E0FC06C060E005C06DE203C0D6
:102EA0006BE201C060E2AE2DA07173FF36C06623F5
:102EB00011F084E001C083E08B1510F4B81A01C052
:102EC000B12CA1110BC0F6018B2D90E2882319F0D3
:102ED00091938150FBCFCB0CD11CB12C662331F0E8
:102EE000F601608396012F5F3F4F6901C60103968B
:102EF000E2FE05C02EE4F601208331E404C02EE694
:102F0000F601208331E631832283FC012B2D30E250
:102F10002223F1F131932150FBCF72FF40C0662391
:102F200011F084E001C083E08B1510F4B81A01C0E1
:102F3000B12CA1110BC0F6018B2D90E2882319F062
:102F400091938150FBCFCB0CD11CB12C662331F077
:102F5000F601608396012F5F3F4F6901C60103961A
:102F6000E2FE07C029E4F60120832EE4218326E453
:102F700006C029E6F60120832EE6218326E6228379
:102F8000FC012B2D30E2222319F031932150FBCF8D
:102F9000FC01EB0DF11D10828EEF9FEFB7C0B1E089
:102FA000611101C0B0E04B2F50E01816190624F44F
:102FB0009C012F5F3F4F02C021E030E0240F351FFE
:102FC000112329F0412F50E04F5F5F4F02C040E0D6
:102FD00050E0420F531F2B2D30E04217530714F4DB
:102FE000B41A01C0B12C2E2D287159F4F6012B2DE5
:102FF00030E2222319F031932150FBCFCB0CD11CAE
:10300000B12CBB2331F0F601608396012F5F3F4F57
:103010006901A1110BC0F6012B2D30E3222319F019
:1030200031932150FBCFCB0CD11CB12CF80E0A816F
:10303000372F3071A32E74FF03C0013309F4FA94C3
:103040001F142CF42F2D293018F028E001C021E0A6
:10305000682F392F97FF02C060E030E0462F532FD2
:10306000612C712C3EE2932EBC01621B71099B0105
:10307000DC01A41BB50BE1E0F0E0EC0FFD1FAE0F8F
:10308000BF1FE12EF12CF194E194F1084F3FFFEFC7
:103090005F0731F4F6019082B6016F5F7F4F6B01DD
:1030A000841795074CF02417350734F4BD01660DDD
:1030B000771DFB01118101C010E341505109FFEF61
:1030C0006F1A7F0AB6016F5F7F4F4E155F0524F0C0
:1030D000F60110836B01DACF4817590739F406332C
:1030E00020F4053319F4A11001C011E3F601108397
:1030F000FB018B2D90E2882319F091938150FBCF37
:10310000FB01EB0DF11D108280E090E029960FB6D7
:10311000F894DEBF0FBECDBFDF91CF911F910F910D
:10312000FF90EF90DF90CF90BF90AF909F907F90F7
:103130006F900895A0E0B0E0E0EAF8E10C94251B60
:103140008B016115710521F0DB018C9311969C9325
:10315000EC015E01BFEFAB1ABB0A7501C8808C2D74
:1031600090E00E94E715892B11F0E501F2CFEDE226
:10317000CE1208C07E01F2E0EF0EF11CC980DD2402
:10318000D39409C02BE2C21205C07E0142E0E40ED6
:10319000F11CC980D12CE701219743E050E060E7A2
:1031A00070E0CE010E94DC1A892BD1F4E70122964F
:1031B00045E050E06BE670E0CE010E94DC1A892BFE
:1031C00011F4E70127960115110519F0D801CD93E7
:1031D000DC93D11008C160E070E080E89FE70CC18B
:1031E00043E050E068E670E0CE010E94DC1A892BD3
:1031F00059F40115110509F4FBC0B2E0EB0EF11C06
:10320000F801F182E082F4C0F70160E070E0CB01E8
:10321000C0E0D0E07F01A0EDAA2EAC0C29E02A1579
:1032200030F14D2D4260B42E2D2D2870D2FE04C0F9
:10323000211125C0219623C021112197A5E0B0E0DE
:103240009B01AC010E94041B660F771F881F991F0A
:103250006A0D711D811D911D6839A9E97A078A07D8
:10326000A9E19A0760F0BD2DB660BB2E08C02EEF15
:10327000A2120AC0D3FC50C04D2D4860B42E319626
:10328000D701CC90DB2CC6CF2C2D2F7D253409F017
:1032900043C0A081AD3241F4BD2DB061DB2E7F0172
:1032A00022E0E20EF11C0CC07F01AB3231F04FEF97
:1032B000E41AF40A21E030E006C0A2E0EA0EF11CB4
:1032C000A18122E030E0A053AA3018F0E21AF30AFC
:1032D00023C0F70120E030E02038BCE03B075CF47D
:1032E000A901440F551F440F551F240F351F220FEE
:1032F000331F2A0F311DAF014F5F5F4F7A01A0814D
:10330000A053AA3010F4FA01E7CFD4FE03C03195E0
:1033100021953109C20FD31FD1FE09C00115110536
:1033200031F0E1E0EE1AF108D801ED92FC920E9432
:1033300065122D2D2370233019F06B017C0106C01E
:103340006B017C01F7FAF094F7F8F09420E030E09C
:10335000A901C701B6010E94C811882309F440C021
:10336000D7FF06C0D195C195D10907E810E002C08A
:103370000FE910E04801B8E18B1A910890E2A92EFC
:10338000B12CF8014590559065907490CA15DB05F5
:103390005CF0A3019201C701B6010E941B136B01EF
:1033A0007C01CA19DB09F2CF04501109B594A79426
:1033B0000815190531F78E2D880F8F2D881F8F3F27
:1033C00049F020E030E0A901C701B6010E94C81110
:1033D000811106C082E290E09093F3018093F201A4
:1033E000C701B60109C060E070E080E89FEF04C04B
:1033F00060E070E080EC9FE7CDB7DEB7E0E10C94D1
:10340000411B283008F027E03327DA01990F311DDE
:1034100087FD916000966105710539F432602E5F79
:103420003D9330E32A95E1F708959F3F30F08038CF
:103430007105610509F03C5F3C5F3D93913008F0F8
:103440008068911DDF93CF931F930F93FF92EF92AC
:10345000192F987F9695E92F96959695E90FFF2756
:10346000E350FF4F99273327EE24FF24A701E701FC
:1034700005900894079428F4360FE71EF81E491F9C
:10348000511D660F771F881F991F0694A1F705909D
:10349000079428F4E70EF81E491F561FC11D770F29
:1034A000881F991F661F0694A1F70590079428F4BA
:1034B000F80E491F561FC71FD11D880F991F661F81
:1034C000771F0694A1F70590079420F4490F561F23
:1034D000C71FD81F990F661F771F881F0694A9F76B
:1034E00084911095177041F0D695C79557954795DB
:1034F000F794E7941A95C1F7E3EAF0E06894159021
:10350000159135916591959105907FE27395E1183C
:10351000F10A430B560BC90BD009C0F7E10CF11EA1
:10352000431F561FC91FD01D7EF4703311F48A95B6
:10353000E6CFE894015030F0080F0AF40027021794
:1035400008F4202F2395022F7A3328F079E37D9316
:103550002A95E9F710C07D932A9589F606949795E8
:103560006795379517951794E118F10A430B560B99
:10357000C90BD00998F023957E9173957A3308F0A2
:1035800070E37C932013B8F77E9170617D9330F0E7
:10359000839571E37D9370E32A95E1F71124EF9011
:1035A000FF900F911F91CF91DF91992787FD909503
:1035B0000895992788270895FB01DC014150504068
:1035C00088F08D9181341CF08B350CF4805E659110
:1035D00061341CF06B350CF4605E861B611171F375
:1035E000990B0895881BFCCFDC01FC01672F7191BA
:1035F0007723E1F7329704C07C916D9370836291D9
:10360000AE17BF07C8F308950E945A1BA59F900DDF
:10361000B49F900DA49F800D911D11240895AA1BA5
:10362000BB1B51E107C0AA1FBB1FA617B70710F0AD
:10363000A61BB70B881F991F5A95A9F780959095DF
:10364000BC01CD0108952F923F924F925F926F92ED
:103650007F928F929F92AF92BF92CF92DF92EF9222
:10366000FF920F931F93CF93DF93CDB7DEB7CA1BA3
:10367000DB0B0FB6F894DEBF0FBECDBF09942A88CE
:10368000398848885F846E847D848C849B84AA8476
:10369000B984C884DF80EE80FD800C811B81AA8103
:1036A000B981CE0FD11D0FB6F894DEBF0FBECDBFCE
:1036B000ED010895A29FB001B39FC001A39F700DBB
:1036C000811D1124911DB29F700D811D1124911D2A
:0636D0000895F894FFCFFD
:1036D6000000F40120006161612000626262200046
:1036E60063636320006C6F6F702000000000003978
:1036F600029904DF010C02F1012E026E616E00696F
:0A3706006E66006F7666002E00006C
:00000001FF
